{
  "contractName": "Auction",
  "abi": [
    {
      "constant": true,
      "inputs": [],
      "name": "creator",
      "outputs": [
        {
          "name": "",
          "type": "address"
        }
      ],
      "payable": false,
      "stateMutability": "view",
      "type": "function"
    },
    {
      "inputs": [],
      "payable": false,
      "stateMutability": "nonpayable",
      "type": "constructor"
    },
    {
      "anonymous": false,
      "inputs": [
        {
          "indexed": false,
          "name": "highestBid",
          "type": "uint256"
        }
      ],
      "name": "AuctionClosed",
      "type": "event"
    },
    {
      "constant": false,
      "inputs": [
        {
          "name": "someRandomBid",
          "type": "uint256"
        }
      ],
      "name": "closeAuction",
      "outputs": [],
      "payable": false,
      "stateMutability": "nonpayable",
      "type": "function"
    }
  ],
  "bytecode": "0x6060604052341561000f57600080fd5b336000806101000a81548173ffffffffffffffffffffffffffffffffffffffff021916908373ffffffffffffffffffffffffffffffffffffffff1602179055506101b38061005e6000396000f30060606040526004361061004c576000357c0100000000000000000000000000000000000000000000000000000000900463ffffffff16806302d05d3f14610051578063236ed8f3146100a6575b600080fd5b341561005c57600080fd5b6100646100c9565b604051808273ffffffffffffffffffffffffffffffffffffffff1673ffffffffffffffffffffffffffffffffffffffff16815260200191505060405180910390f35b34156100b157600080fd5b6100c760048080359060200190919050506100ee565b005b6000809054906101000a900473ffffffffffffffffffffffffffffffffffffffff1681565b6000809054906101000a900473ffffffffffffffffffffffffffffffffffffffff1673ffffffffffffffffffffffffffffffffffffffff163373ffffffffffffffffffffffffffffffffffffffff16141561017f577fac4a907ec29adcc56774b757ecb1e1b4d597374fc9386107d05e2670259df7d3816040518082815260200191505060405180910390a1610184565b600080fd5b505600a165627a7a72305820a3caacc6bbca29f04c3ec7d47a1f8e67ccebf531da9588bb7e6dc59e46c051e80029",
  "source": "pragma solidity ^0.4.19;\r\n\r\ncontract Auction {\r\n  event AuctionClosed (uint highestBid);  //declare eventto be triggered when Auction closes\r\n  address public creator;\r\n  function Auction () { //Auction Constructor to register the creator of the contract\r\n    creator = msg.sender;\r\n  }\r\n  function closeAuction (uint someRandomBid) {\r\n    if (msg.sender == creator) {  //make sure that auction is being ended by the creator themselves\r\n      AuctionClosed (someRandomBid);  //trigger the event to notify the listeneres that the auction has ended\r\n      return;\r\n    }\r\n    throw;\r\n  }\r\n}",
  "sourcePath": "C:\\Users\\easwaras\\Documents\\personal\\Crypto\\projects\\auction-app\\contracts\\Auction.sol",
  "compiler": {
    "name": "solc",
    "version": "0.4.19+commit.c4cbbb05.Emscripten.clang"
  },
  "schemaVersion": "1.0.1",
  "updatedAt": "2018-02-12T16:47:32.703Z"
}